{
	"data": {
		"bytecode": {
			"linkReferences": {},
			"object": "60c06040523480156200001157600080fd5b506040516200152d3803806200152d83398101604081905262000034916200012e565b6200004862000042620000b7565b620000bb565b6001805560048490556200006986866200010b602090811b62000c5917901c565b60025560038690556006839055620000908361271062000120602090811b62000c6c17901c565b6005556001600160601b0319606092831b8116608052911b1660a05250620001f092505050565b3390565b600080546001600160a01b038381166001600160a01b0319831681178455604051919092169283917f8be0079c531659141344cd1fd0a4f28419497f9722a3daafe3b4186f6b6457e09190a35050565b600062000119828462000191565b9392505050565b6000620001198284620001b6565b60008060008060008060c0878903121562000147578182fd5b8651955060208701519450604087015193506060870151925060808701516200017081620001d7565b60a08801519092506200018381620001d7565b809150509295509295509295565b60008219821115620001b157634e487b7160e01b81526011600452602481fd5b500190565b600082620001d257634e487b7160e01b81526012600452602481fd5b500490565b6001600160a01b0381168114620001ed57600080fd5b50565b60805160601c60a05160601c6112e06200024d600039600081816101de015281816102ae0152818161046001528181610613015281816109a40152610b840152600081816107da01528181610b130152610bae01526112e06000f3fe608060405234801561001057600080fd5b50600436106100f55760003560e01c8063a4a79a2f11610097578063d0e0a4b111610066578063d0e0a4b114610198578063d85d7f5b146101a0578063f2fde38b146101a8578063fa88c3be146101bb576100f5565b8063a4a79a2f14610162578063ad5ae76f14610175578063b2a229b914610188578063be9a655514610190576100f5565b806313e8909d116100d357806313e8909d146101335780634e71d92d1461013b578063715018a6146101455780638da5cb5b1461014d576100f5565b80630b5d79af146100fa5780630fb5a6b41461012357806313d033c01461012b575b600080fd5b61010d610108366004610eb6565b6101ce565b60405161011a91906111bd565b60405180910390f35b61010d6103f9565b61010d6103ff565b61010d610405565b61014361040b565b005b61014361084d565b610155610898565b60405161011a9190610f94565b61010d610170366004610f0e565b6108a7565b610143610183366004610f0e565b61095c565b610155610b82565b61010d610ba6565b610155610bac565b61010d610bd0565b6101436101b6366004610eb6565b610bd6565b61010d6101c9366004610f0e565b610c47565b60008060008060008060008091507f00000000000000000000000000000000000000000000000000000000000000006001600160a01b03166370a08231896040518263ffffffff1660e01b81526004016102289190610f94565b60206040518083038186803b15801561024057600080fd5b505afa158015610254573d6000803e3d6000fd5b505050506040513d601f19601f820116820180604052508101906102789190610f26565b94508461028c575094506103f49350505050565b60005b858110156103ea57604051632f745c5960e01b81526001600160a01b037f00000000000000000000000000000000000000000000000000000000000000001690632f745c59906102e5908c908590600401610fa8565b60206040518083038186803b1580156102fd57600080fd5b505afa158015610311573d6000803e3d6000fd5b505050506040513d601f19601f820116820180604052508101906103359190610f26565b60008181526007602052604090205460045460035492995090965061035a9190610c59565b421061036a57600554935061039a565b61039760045461039161038860035442610c7890919063ffffffff16565b60055490610c84565b90610c6c565b93505b8469021e19e0c9bab240000014806103b157508385115b156103bf57600091506103cc565b6103c98486610c78565b91505b6103d682846111c6565b9250806103e281611264565b91505061028f565b5090955050505050505b919050565b60045481565b60025481565b60055481565b600260015414156104375760405162461bcd60e51b815260040161042e90611186565b60405180910390fd5b60026001556040516370a0823160e01b8152600090819081908190819081906001600160a01b037f000000000000000000000000000000000000000000000000000000000000000016906370a0823190610495903390600401610f94565b60206040518083038186803b1580156104ad57600080fd5b505afa1580156104c1573d6000803e3d6000fd5b505050506040513d601f19601f820116820180604052508101906104e59190610f26565b94508461054757604080516000808252602082019081528183019283905290917f70c7a0de307060b91b1763e08e46c7ff7e0a9bd575c8aebe351f16fe7bbceb3590610538903390879086908690610fc1565b60405180910390a15050610841565b60008567ffffffffffffffff81111561057057634e487b7160e01b600052604160045260246000fd5b604051908082528060200260200182016040528015610599578160200160208202803683370190505b50905060008667ffffffffffffffff8111156105c557634e487b7160e01b600052604160045260246000fd5b6040519080825280602002602001820160405280156105ee578160200160208202803683370190505b50905060005b878110156107cc57604051632f745c5960e01b81526001600160a01b037f00000000000000000000000000000000000000000000000000000000000000001690632f745c599061064a9033908590600401610fa8565b60206040518083038186803b15801561066257600080fd5b505afa158015610676573d6000803e3d6000fd5b505050506040513d601f19601f8201168201806040525081019061069a9190610f26565b9850888382815181106106bd57634e487b7160e01b600052603260045260246000fd5b602002602001018181525050600760008a81526020019081526020016000205496506106f6600454600354610c5990919063ffffffff16565b4210610706576005549550610727565b61072460045461039161038860035442610c7890919063ffffffff16565b95505b8669021e19e0c9bab2400000148061073e57508587115b1561074c5760009350610759565b6107568688610c78565b93505b8382828151811061077a57634e487b7160e01b600052603260045260246000fd5b602090810291909101015261078f84866111c6565b945083600760008b815260200190815260200160002060008282546107b491906111c6565b909155508190506107c481611264565b9150506105f4565b506108016001600160a01b037f0000000000000000000000000000000000000000000000000000000000000000163386610c90565b7f70c7a0de307060b91b1763e08e46c7ff7e0a9bd575c8aebe351f16fe7bbceb35338584846040516108369493929190610fc1565b60405180910390a150505b50506001805550505050565b610855610ceb565b6001600160a01b0316610866610898565b6001600160a01b03161461088c5760405162461bcd60e51b815260040161042e906110d0565b6108966000610cef565b565b6000546001600160a01b031690565b6000806000806108c4600454600354610c5990919063ffffffff16565b42106108d45760055491506108f5565b6108f260045461039161038860035442610c7890919063ffffffff16565b91505b6001851080610905575061271085115b1561091257506000610954565b600085815260076020526040902054925069021e19e0c9bab240000083148061093a57508183115b1561094757506000610954565b6109518284610c78565b90505b949350505050565b6002600154141561097f5760405162461bcd60e51b815260040161042e90611186565b60026001556040516331a9108f60e11b81526000908190819081906001600160a01b037f00000000000000000000000000000000000000000000000000000000000000001690636352211e906109d99088906004016111bd565b60206040518083038186803b1580156109f157600080fd5b505afa158015610a05573d6000803e3d6000fd5b505050506040513d601f19601f82011682018060405250810190610a299190610ed2565b6001600160a01b0316336001600160a01b031614610a595760405162461bcd60e51b815260040161042e90611099565b600085815260076020526040902054600454600354919550610a7b9190610c59565b4210610a8b576005549250610aac565b610aa960045461039161038860035442610c7890919063ffffffff16565b92505b8369021e19e0c9bab24000001480610ac357508284115b15610ad057506000610add565b610ada8385610c78565b90505b600085815260076020526040812080549293508392839290610b009084906111c6565b90915550610b3a90506001600160a01b037f0000000000000000000000000000000000000000000000000000000000000000163384610c90565b7fce93bf285b22c6e718b70ab1e247264879ee93af781ba6f9ab91d660bb00c4f333838785604051610b6f9493929190610ffa565b60405180910390a1505060018055505050565b7f000000000000000000000000000000000000000000000000000000000000000081565b60035481565b7f000000000000000000000000000000000000000000000000000000000000000081565b60065481565b610bde610ceb565b6001600160a01b0316610bef610898565b6001600160a01b031614610c155760405162461bcd60e51b815260040161042e906110d0565b6001600160a01b038116610c3b5760405162461bcd60e51b815260040161042e90611053565b610c4481610cef565b50565b60076020526000908152604090205481565b6000610c6582846111c6565b9392505050565b6000610c6582846111de565b6000610c65828461121d565b6000610c6582846111fe565b610ce68363a9059cbb60e01b8484604051602401610caf929190610fa8565b60408051601f198184030181529190526020810180516001600160e01b03166001600160e01b031990931692909217909152610d3f565b505050565b3390565b600080546001600160a01b038381166001600160a01b0319831681178455604051919092169283917f8be0079c531659141344cd1fd0a4f28419497f9722a3daafe3b4186f6b6457e09190a35050565b6000610d94826040518060400160405280602081526020017f5361666545524332303a206c6f772d6c6576656c2063616c6c206661696c6564815250856001600160a01b0316610dce9092919063ffffffff16565b805190915015610ce65780806020019051810190610db29190610eee565b610ce65760405162461bcd60e51b815260040161042e9061113c565b6060610954848460008585610de285610e77565b610dfe5760405162461bcd60e51b815260040161042e90611105565b600080866001600160a01b03168587604051610e1a9190610f78565b60006040518083038185875af1925050503d8060008114610e57576040519150601f19603f3d011682016040523d82523d6000602084013e610e5c565b606091505b5091509150610e6c828286610e7d565b979650505050505050565b3b151590565b60608315610e8c575081610c65565b825115610e9c5782518084602001fd5b8160405162461bcd60e51b815260040161042e9190611020565b600060208284031215610ec7578081fd5b8135610c6581611295565b600060208284031215610ee3578081fd5b8151610c6581611295565b600060208284031215610eff578081fd5b81518015158114610c65578182fd5b600060208284031215610f1f578081fd5b5035919050565b600060208284031215610f37578081fd5b5051919050565b6000815180845260208085019450808401835b83811015610f6d57815187529582019590820190600101610f51565b509495945050505050565b60008251610f8a818460208701611234565b9190910192915050565b6001600160a01b0391909116815260200190565b6001600160a01b03929092168252602082015260400190565b600060018060a01b038616825284602083015260806040830152610fe86080830185610f3e565b8281036060840152610e6c8185610f3e565b6001600160a01b0394909416845260208401929092526040830152606082015260800190565b600060208252825180602084015261103f816040850160208701611234565b601f01601f19169190910160400192915050565b60208082526026908201527f4f776e61626c653a206e6577206f776e657220697320746865207a65726f206160408201526564647265737360d01b606082015260800190565b6020808252601a908201527f53656e646572206973206e6f74206f776e6572206f66204e4654000000000000604082015260600190565b6020808252818101527f4f776e61626c653a2063616c6c6572206973206e6f7420746865206f776e6572604082015260600190565b6020808252601d908201527f416464726573733a2063616c6c20746f206e6f6e2d636f6e7472616374000000604082015260600190565b6020808252602a908201527f5361666545524332303a204552433230206f7065726174696f6e20646964206e6040820152691bdd081cdd58d8d9595960b21b606082015260800190565b6020808252601f908201527f5265656e7472616e637947756172643a207265656e7472616e742063616c6c00604082015260600190565b90815260200190565b600082198211156111d9576111d961127f565b500190565b6000826111f957634e487b7160e01b81526012600452602481fd5b500490565b60008160001904831182151516156112185761121861127f565b500290565b60008282101561122f5761122f61127f565b500390565b60005b8381101561124f578181015183820152602001611237565b8381111561125e576000848401525b50505050565b60006000198214156112785761127861127f565b5060010190565b634e487b7160e01b600052601160045260246000fd5b6001600160a01b0381168114610c4457600080fdfea2646970667358221220f9b46ede2e45f552558b8a5a65a2151f7b2361235059fff19ba9ada9ce10c30364736f6c63430008000033",
			"opcodes": "PUSH1 0xC0 PUSH1 0x40 MSTORE CALLVALUE DUP1 ISZERO PUSH3 0x11 JUMPI PUSH1 0x0 DUP1 REVERT JUMPDEST POP PUSH1 0x40 MLOAD PUSH3 0x152D CODESIZE SUB DUP1 PUSH3 0x152D DUP4 CODECOPY DUP2 ADD PUSH1 0x40 DUP2 SWAP1 MSTORE PUSH3 0x34 SWAP2 PUSH3 0x12E JUMP JUMPDEST PUSH3 0x48 PUSH3 0x42 PUSH3 0xB7 JUMP JUMPDEST PUSH3 0xBB JUMP JUMPDEST PUSH1 0x1 DUP1 SSTORE PUSH1 0x4 DUP5 SWAP1 SSTORE PUSH3 0x69 DUP7 DUP7 PUSH3 0x10B PUSH1 0x20 SWAP1 DUP2 SHL PUSH3 0xC59 OR SWAP1 SHR JUMP JUMPDEST PUSH1 0x2 SSTORE PUSH1 0x3 DUP7 SWAP1 SSTORE PUSH1 0x6 DUP4 SWAP1 SSTORE PUSH3 0x90 DUP4 PUSH2 0x2710 PUSH3 0x120 PUSH1 0x20 SWAP1 DUP2 SHL PUSH3 0xC6C OR SWAP1 SHR JUMP JUMPDEST PUSH1 0x5 SSTORE PUSH1 0x1 PUSH1 0x1 PUSH1 0x60 SHL SUB NOT PUSH1 0x60 SWAP3 DUP4 SHL DUP2 AND PUSH1 0x80 MSTORE SWAP2 SHL AND PUSH1 0xA0 MSTORE POP PUSH3 0x1F0 SWAP3 POP POP POP JUMP JUMPDEST CALLER SWAP1 JUMP JUMPDEST PUSH1 0x0 DUP1 SLOAD PUSH1 0x1 PUSH1 0x1 PUSH1 0xA0 SHL SUB DUP4 DUP2 AND PUSH1 0x1 PUSH1 0x1 PUSH1 0xA0 SHL SUB NOT DUP4 AND DUP2 OR DUP5 SSTORE PUSH1 0x40 MLOAD SWAP2 SWAP1 SWAP3 AND SWAP3 DUP4 SWAP2 PUSH32 0x8BE0079C531659141344CD1FD0A4F28419497F9722A3DAAFE3B4186F6B6457E0 SWAP2 SWAP1 LOG3 POP POP JUMP JUMPDEST PUSH1 0x0 PUSH3 0x119 DUP3 DUP5 PUSH3 0x191 JUMP JUMPDEST SWAP4 SWAP3 POP POP POP JUMP JUMPDEST PUSH1 0x0 PUSH3 0x119 DUP3 DUP5 PUSH3 0x1B6 JUMP JUMPDEST PUSH1 0x0 DUP1 PUSH1 0x0 DUP1 PUSH1 0x0 DUP1 PUSH1 0xC0 DUP8 DUP10 SUB SLT ISZERO PUSH3 0x147 JUMPI DUP2 DUP3 REVERT JUMPDEST DUP7 MLOAD SWAP6 POP PUSH1 0x20 DUP8 ADD MLOAD SWAP5 POP PUSH1 0x40 DUP8 ADD MLOAD SWAP4 POP PUSH1 0x60 DUP8 ADD MLOAD SWAP3 POP PUSH1 0x80 DUP8 ADD MLOAD PUSH3 0x170 DUP2 PUSH3 0x1D7 JUMP JUMPDEST PUSH1 0xA0 DUP9 ADD MLOAD SWAP1 SWAP3 POP PUSH3 0x183 DUP2 PUSH3 0x1D7 JUMP JUMPDEST DUP1 SWAP2 POP POP SWAP3 SWAP6 POP SWAP3 SWAP6 POP SWAP3 SWAP6 JUMP JUMPDEST PUSH1 0x0 DUP3 NOT DUP3 GT ISZERO PUSH3 0x1B1 JUMPI PUSH4 0x4E487B71 PUSH1 0xE0 SHL DUP2 MSTORE PUSH1 0x11 PUSH1 0x4 MSTORE PUSH1 0x24 DUP2 REVERT JUMPDEST POP ADD SWAP1 JUMP JUMPDEST PUSH1 0x0 DUP3 PUSH3 0x1D2 JUMPI PUSH4 0x4E487B71 PUSH1 0xE0 SHL DUP2 MSTORE PUSH1 0x12 PUSH1 0x4 MSTORE PUSH1 0x24 DUP2 REVERT JUMPDEST POP DIV SWAP1 JUMP JUMPDEST PUSH1 0x1 PUSH1 0x1 PUSH1 0xA0 SHL SUB DUP2 AND DUP2 EQ PUSH3 0x1ED JUMPI PUSH1 0x0 DUP1 REVERT JUMPDEST POP JUMP JUMPDEST PUSH1 0x80 MLOAD PUSH1 0x60 SHR PUSH1 0xA0 MLOAD PUSH1 0x60 SHR PUSH2 0x12E0 PUSH3 0x24D PUSH1 0x0 CODECOPY PUSH1 0x0 DUP2 DUP2 PUSH2 0x1DE ADD MSTORE DUP2 DUP2 PUSH2 0x2AE ADD MSTORE DUP2 DUP2 PUSH2 0x460 ADD MSTORE DUP2 DUP2 PUSH2 0x613 ADD MSTORE DUP2 DUP2 PUSH2 0x9A4 ADD MSTORE PUSH2 0xB84 ADD MSTORE PUSH1 0x0 DUP2 DUP2 PUSH2 0x7DA ADD MSTORE DUP2 DUP2 PUSH2 0xB13 ADD MSTORE PUSH2 0xBAE ADD MSTORE PUSH2 0x12E0 PUSH1 0x0 RETURN INVALID PUSH1 0x80 PUSH1 0x40 MSTORE CALLVALUE DUP1 ISZERO PUSH2 0x10 JUMPI PUSH1 0x0 DUP1 REVERT JUMPDEST POP PUSH1 0x4 CALLDATASIZE LT PUSH2 0xF5 JUMPI PUSH1 0x0 CALLDATALOAD PUSH1 0xE0 SHR DUP1 PUSH4 0xA4A79A2F GT PUSH2 0x97 JUMPI DUP1 PUSH4 0xD0E0A4B1 GT PUSH2 0x66 JUMPI DUP1 PUSH4 0xD0E0A4B1 EQ PUSH2 0x198 JUMPI DUP1 PUSH4 0xD85D7F5B EQ PUSH2 0x1A0 JUMPI DUP1 PUSH4 0xF2FDE38B EQ PUSH2 0x1A8 JUMPI DUP1 PUSH4 0xFA88C3BE EQ PUSH2 0x1BB JUMPI PUSH2 0xF5 JUMP JUMPDEST DUP1 PUSH4 0xA4A79A2F EQ PUSH2 0x162 JUMPI DUP1 PUSH4 0xAD5AE76F EQ PUSH2 0x175 JUMPI DUP1 PUSH4 0xB2A229B9 EQ PUSH2 0x188 JUMPI DUP1 PUSH4 0xBE9A6555 EQ PUSH2 0x190 JUMPI PUSH2 0xF5 JUMP JUMPDEST DUP1 PUSH4 0x13E8909D GT PUSH2 0xD3 JUMPI DUP1 PUSH4 0x13E8909D EQ PUSH2 0x133 JUMPI DUP1 PUSH4 0x4E71D92D EQ PUSH2 0x13B JUMPI DUP1 PUSH4 0x715018A6 EQ PUSH2 0x145 JUMPI DUP1 PUSH4 0x8DA5CB5B EQ PUSH2 0x14D JUMPI PUSH2 0xF5 JUMP JUMPDEST DUP1 PUSH4 0xB5D79AF EQ PUSH2 0xFA JUMPI DUP1 PUSH4 0xFB5A6B4 EQ PUSH2 0x123 JUMPI DUP1 PUSH4 0x13D033C0 EQ PUSH2 0x12B JUMPI JUMPDEST PUSH1 0x0 DUP1 REVERT JUMPDEST PUSH2 0x10D PUSH2 0x108 CALLDATASIZE PUSH1 0x4 PUSH2 0xEB6 JUMP JUMPDEST PUSH2 0x1CE JUMP JUMPDEST PUSH1 0x40 MLOAD PUSH2 0x11A SWAP2 SWAP1 PUSH2 0x11BD JUMP JUMPDEST PUSH1 0x40 MLOAD DUP1 SWAP2 SUB SWAP1 RETURN JUMPDEST PUSH2 0x10D PUSH2 0x3F9 JUMP JUMPDEST PUSH2 0x10D PUSH2 0x3FF JUMP JUMPDEST PUSH2 0x10D PUSH2 0x405 JUMP JUMPDEST PUSH2 0x143 PUSH2 0x40B JUMP JUMPDEST STOP JUMPDEST PUSH2 0x143 PUSH2 0x84D JUMP JUMPDEST PUSH2 0x155 PUSH2 0x898 JUMP JUMPDEST PUSH1 0x40 MLOAD PUSH2 0x11A SWAP2 SWAP1 PUSH2 0xF94 JUMP JUMPDEST PUSH2 0x10D PUSH2 0x170 CALLDATASIZE PUSH1 0x4 PUSH2 0xF0E JUMP JUMPDEST PUSH2 0x8A7 JUMP JUMPDEST PUSH2 0x143 PUSH2 0x183 CALLDATASIZE PUSH1 0x4 PUSH2 0xF0E JUMP JUMPDEST PUSH2 0x95C JUMP JUMPDEST PUSH2 0x155 PUSH2 0xB82 JUMP JUMPDEST PUSH2 0x10D PUSH2 0xBA6 JUMP JUMPDEST PUSH2 0x155 PUSH2 0xBAC JUMP JUMPDEST PUSH2 0x10D PUSH2 0xBD0 JUMP JUMPDEST PUSH2 0x143 PUSH2 0x1B6 CALLDATASIZE PUSH1 0x4 PUSH2 0xEB6 JUMP JUMPDEST PUSH2 0xBD6 JUMP JUMPDEST PUSH2 0x10D PUSH2 0x1C9 CALLDATASIZE PUSH1 0x4 PUSH2 0xF0E JUMP JUMPDEST PUSH2 0xC47 JUMP JUMPDEST PUSH1 0x0 DUP1 PUSH1 0x0 DUP1 PUSH1 0x0 DUP1 PUSH1 0x0 DUP1 SWAP2 POP PUSH32 0x0 PUSH1 0x1 PUSH1 0x1 PUSH1 0xA0 SHL SUB AND PUSH4 0x70A08231 DUP10 PUSH1 0x40 MLOAD DUP3 PUSH4 0xFFFFFFFF AND PUSH1 0xE0 SHL DUP2 MSTORE PUSH1 0x4 ADD PUSH2 0x228 SWAP2 SWAP1 PUSH2 0xF94 JUMP JUMPDEST PUSH1 0x20 PUSH1 0x40 MLOAD DUP1 DUP4 SUB DUP2 DUP7 DUP1 EXTCODESIZE ISZERO DUP1 ISZERO PUSH2 0x240 JUMPI PUSH1 0x0 DUP1 REVERT JUMPDEST POP GAS STATICCALL ISZERO DUP1 ISZERO PUSH2 0x254 JUMPI RETURNDATASIZE PUSH1 0x0 DUP1 RETURNDATACOPY RETURNDATASIZE PUSH1 0x0 REVERT JUMPDEST POP POP POP POP PUSH1 0x40 MLOAD RETURNDATASIZE PUSH1 0x1F NOT PUSH1 0x1F DUP3 ADD AND DUP3 ADD DUP1 PUSH1 0x40 MSTORE POP DUP2 ADD SWAP1 PUSH2 0x278 SWAP2 SWAP1 PUSH2 0xF26 JUMP JUMPDEST SWAP5 POP DUP5 PUSH2 0x28C JUMPI POP SWAP5 POP PUSH2 0x3F4 SWAP4 POP POP POP POP JUMP JUMPDEST PUSH1 0x0 JUMPDEST DUP6 DUP2 LT ISZERO PUSH2 0x3EA JUMPI PUSH1 0x40 MLOAD PUSH4 0x2F745C59 PUSH1 0xE0 SHL DUP2 MSTORE PUSH1 0x1 PUSH1 0x1 PUSH1 0xA0 SHL SUB PUSH32 0x0 AND SWAP1 PUSH4 0x2F745C59 SWAP1 PUSH2 0x2E5 SWAP1 DUP13 SWAP1 DUP6 SWAP1 PUSH1 0x4 ADD PUSH2 0xFA8 JUMP JUMPDEST PUSH1 0x20 PUSH1 0x40 MLOAD DUP1 DUP4 SUB DUP2 DUP7 DUP1 EXTCODESIZE ISZERO DUP1 ISZERO PUSH2 0x2FD JUMPI PUSH1 0x0 DUP1 REVERT JUMPDEST POP GAS STATICCALL ISZERO DUP1 ISZERO PUSH2 0x311 JUMPI RETURNDATASIZE PUSH1 0x0 DUP1 RETURNDATACOPY RETURNDATASIZE PUSH1 0x0 REVERT JUMPDEST POP POP POP POP PUSH1 0x40 MLOAD RETURNDATASIZE PUSH1 0x1F NOT PUSH1 0x1F DUP3 ADD AND DUP3 ADD DUP1 PUSH1 0x40 MSTORE POP DUP2 ADD SWAP1 PUSH2 0x335 SWAP2 SWAP1 PUSH2 0xF26 JUMP JUMPDEST PUSH1 0x0 DUP2 DUP2 MSTORE PUSH1 0x7 PUSH1 0x20 MSTORE PUSH1 0x40 SWAP1 KECCAK256 SLOAD PUSH1 0x4 SLOAD PUSH1 0x3 SLOAD SWAP3 SWAP10 POP SWAP1 SWAP7 POP PUSH2 0x35A SWAP2 SWAP1 PUSH2 0xC59 JUMP JUMPDEST TIMESTAMP LT PUSH2 0x36A JUMPI PUSH1 0x5 SLOAD SWAP4 POP PUSH2 0x39A JUMP JUMPDEST PUSH2 0x397 PUSH1 0x4 SLOAD PUSH2 0x391 PUSH2 0x388 PUSH1 0x3 SLOAD TIMESTAMP PUSH2 0xC78 SWAP1 SWAP2 SWAP1 PUSH4 0xFFFFFFFF AND JUMP JUMPDEST PUSH1 0x5 SLOAD SWAP1 PUSH2 0xC84 JUMP JUMPDEST SWAP1 PUSH2 0xC6C JUMP JUMPDEST SWAP4 POP JUMPDEST DUP5 PUSH10 0x21E19E0C9BAB2400000 EQ DUP1 PUSH2 0x3B1 JUMPI POP DUP4 DUP6 GT JUMPDEST ISZERO PUSH2 0x3BF JUMPI PUSH1 0x0 SWAP2 POP PUSH2 0x3CC JUMP JUMPDEST PUSH2 0x3C9 DUP5 DUP7 PUSH2 0xC78 JUMP JUMPDEST SWAP2 POP JUMPDEST PUSH2 0x3D6 DUP3 DUP5 PUSH2 0x11C6 JUMP JUMPDEST SWAP3 POP DUP1 PUSH2 0x3E2 DUP2 PUSH2 0x1264 JUMP JUMPDEST SWAP2 POP POP PUSH2 0x28F JUMP JUMPDEST POP SWAP1 SWAP6 POP POP POP POP POP POP JUMPDEST SWAP2 SWAP1 POP JUMP JUMPDEST PUSH1 0x4 SLOAD DUP2 JUMP JUMPDEST PUSH1 0x2 SLOAD DUP2 JUMP JUMPDEST PUSH1 0x5 SLOAD DUP2 JUMP JUMPDEST PUSH1 0x2 PUSH1 0x1 SLOAD EQ ISZERO PUSH2 0x437 JUMPI PUSH1 0x40 MLOAD PUSH3 0x461BCD PUSH1 0xE5 SHL DUP2 MSTORE PUSH1 0x4 ADD PUSH2 0x42E SWAP1 PUSH2 0x1186 JUMP JUMPDEST PUSH1 0x40 MLOAD DUP1 SWAP2 SUB SWAP1 REVERT JUMPDEST PUSH1 0x2 PUSH1 0x1 SSTORE PUSH1 0x40 MLOAD PUSH4 0x70A08231 PUSH1 0xE0 SHL DUP2 MSTORE PUSH1 0x0 SWAP1 DUP2 SWAP1 DUP2 SWAP1 DUP2 SWAP1 DUP2 SWAP1 DUP2 SWAP1 PUSH1 0x1 PUSH1 0x1 PUSH1 0xA0 SHL SUB PUSH32 0x0 AND SWAP1 PUSH4 0x70A08231 SWAP1 PUSH2 0x495 SWAP1 CALLER SWAP1 PUSH1 0x4 ADD PUSH2 0xF94 JUMP JUMPDEST PUSH1 0x20 PUSH1 0x40 MLOAD DUP1 DUP4 SUB DUP2 DUP7 DUP1 EXTCODESIZE ISZERO DUP1 ISZERO PUSH2 0x4AD JUMPI PUSH1 0x0 DUP1 REVERT JUMPDEST POP GAS STATICCALL ISZERO DUP1 ISZERO PUSH2 0x4C1 JUMPI RETURNDATASIZE PUSH1 0x0 DUP1 RETURNDATACOPY RETURNDATASIZE PUSH1 0x0 REVERT JUMPDEST POP POP POP POP PUSH1 0x40 MLOAD RETURNDATASIZE PUSH1 0x1F NOT PUSH1 0x1F DUP3 ADD AND DUP3 ADD DUP1 PUSH1 0x40 MSTORE POP DUP2 ADD SWAP1 PUSH2 0x4E5 SWAP2 SWAP1 PUSH2 0xF26 JUMP JUMPDEST SWAP5 POP DUP5 PUSH2 0x547 JUMPI PUSH1 0x40 DUP1 MLOAD PUSH1 0x0 DUP1 DUP3 MSTORE PUSH1 0x20 DUP3 ADD SWAP1 DUP2 MSTORE DUP2 DUP4 ADD SWAP3 DUP4 SWAP1 MSTORE SWAP1 SWAP2 PUSH32 0x70C7A0DE307060B91B1763E08E46C7FF7E0A9BD575C8AEBE351F16FE7BBCEB35 SWAP1 PUSH2 0x538 SWAP1 CALLER SWAP1 DUP8 SWAP1 DUP7 SWAP1 DUP7 SWAP1 PUSH2 0xFC1 JUMP JUMPDEST PUSH1 0x40 MLOAD DUP1 SWAP2 SUB SWAP1 LOG1 POP POP PUSH2 0x841 JUMP JUMPDEST PUSH1 0x0 DUP6 PUSH8 0xFFFFFFFFFFFFFFFF DUP2 GT ISZERO PUSH2 0x570 JUMPI PUSH4 0x4E487B71 PUSH1 0xE0 SHL PUSH1 0x0 MSTORE PUSH1 0x41 PUSH1 0x4 MSTORE PUSH1 0x24 PUSH1 0x0 REVERT JUMPDEST PUSH1 0x40 MLOAD SWAP1 DUP1 DUP3 MSTORE DUP1 PUSH1 0x20 MUL PUSH1 0x20 ADD DUP3 ADD PUSH1 0x40 MSTORE DUP1 ISZERO PUSH2 0x599 JUMPI DUP2 PUSH1 0x20 ADD PUSH1 0x20 DUP3 MUL DUP1 CALLDATASIZE DUP4 CALLDATACOPY ADD SWAP1 POP JUMPDEST POP SWAP1 POP PUSH1 0x0 DUP7 PUSH8 0xFFFFFFFFFFFFFFFF DUP2 GT ISZERO PUSH2 0x5C5 JUMPI PUSH4 0x4E487B71 PUSH1 0xE0 SHL PUSH1 0x0 MSTORE PUSH1 0x41 PUSH1 0x4 MSTORE PUSH1 0x24 PUSH1 0x0 REVERT JUMPDEST PUSH1 0x40 MLOAD SWAP1 DUP1 DUP3 MSTORE DUP1 PUSH1 0x20 MUL PUSH1 0x20 ADD DUP3 ADD PUSH1 0x40 MSTORE DUP1 ISZERO PUSH2 0x5EE JUMPI DUP2 PUSH1 0x20 ADD PUSH1 0x20 DUP3 MUL DUP1 CALLDATASIZE DUP4 CALLDATACOPY ADD SWAP1 POP JUMPDEST POP SWAP1 POP PUSH1 0x0 JUMPDEST DUP8 DUP2 LT ISZERO PUSH2 0x7CC JUMPI PUSH1 0x40 MLOAD PUSH4 0x2F745C59 PUSH1 0xE0 SHL DUP2 MSTORE PUSH1 0x1 PUSH1 0x1 PUSH1 0xA0 SHL SUB PUSH32 0x0 AND SWAP1 PUSH4 0x2F745C59 SWAP1 PUSH2 0x64A SWAP1 CALLER SWAP1 DUP6 SWAP1 PUSH1 0x4 ADD PUSH2 0xFA8 JUMP JUMPDEST PUSH1 0x20 PUSH1 0x40 MLOAD DUP1 DUP4 SUB DUP2 DUP7 DUP1 EXTCODESIZE ISZERO DUP1 ISZERO PUSH2 0x662 JUMPI PUSH1 0x0 DUP1 REVERT JUMPDEST POP GAS STATICCALL ISZERO DUP1 ISZERO PUSH2 0x676 JUMPI RETURNDATASIZE PUSH1 0x0 DUP1 RETURNDATACOPY RETURNDATASIZE PUSH1 0x0 REVERT JUMPDEST POP POP POP POP PUSH1 0x40 MLOAD RETURNDATASIZE PUSH1 0x1F NOT PUSH1 0x1F DUP3 ADD AND DUP3 ADD DUP1 PUSH1 0x40 MSTORE POP DUP2 ADD SWAP1 PUSH2 0x69A SWAP2 SWAP1 PUSH2 0xF26 JUMP JUMPDEST SWAP9 POP DUP9 DUP4 DUP3 DUP2 MLOAD DUP2 LT PUSH2 0x6BD JUMPI PUSH4 0x4E487B71 PUSH1 0xE0 SHL PUSH1 0x0 MSTORE PUSH1 0x32 PUSH1 0x4 MSTORE PUSH1 0x24 PUSH1 0x0 REVERT JUMPDEST PUSH1 0x20 MUL PUSH1 0x20 ADD ADD DUP2 DUP2 MSTORE POP POP PUSH1 0x7 PUSH1 0x0 DUP11 DUP2 MSTORE PUSH1 0x20 ADD SWAP1 DUP2 MSTORE PUSH1 0x20 ADD PUSH1 0x0 KECCAK256 SLOAD SWAP7 POP PUSH2 0x6F6 PUSH1 0x4 SLOAD PUSH1 0x3 SLOAD PUSH2 0xC59 SWAP1 SWAP2 SWAP1 PUSH4 0xFFFFFFFF AND JUMP JUMPDEST TIMESTAMP LT PUSH2 0x706 JUMPI PUSH1 0x5 SLOAD SWAP6 POP PUSH2 0x727 JUMP JUMPDEST PUSH2 0x724 PUSH1 0x4 SLOAD PUSH2 0x391 PUSH2 0x388 PUSH1 0x3 SLOAD TIMESTAMP PUSH2 0xC78 SWAP1 SWAP2 SWAP1 PUSH4 0xFFFFFFFF AND JUMP JUMPDEST SWAP6 POP JUMPDEST DUP7 PUSH10 0x21E19E0C9BAB2400000 EQ DUP1 PUSH2 0x73E JUMPI POP DUP6 DUP8 GT JUMPDEST ISZERO PUSH2 0x74C JUMPI PUSH1 0x0 SWAP4 POP PUSH2 0x759 JUMP JUMPDEST PUSH2 0x756 DUP7 DUP9 PUSH2 0xC78 JUMP JUMPDEST SWAP4 POP JUMPDEST DUP4 DUP3 DUP3 DUP2 MLOAD DUP2 LT PUSH2 0x77A JUMPI PUSH4 0x4E487B71 PUSH1 0xE0 SHL PUSH1 0x0 MSTORE PUSH1 0x32 PUSH1 0x4 MSTORE PUSH1 0x24 PUSH1 0x0 REVERT JUMPDEST PUSH1 0x20 SWAP1 DUP2 MUL SWAP2 SWAP1 SWAP2 ADD ADD MSTORE PUSH2 0x78F DUP5 DUP7 PUSH2 0x11C6 JUMP JUMPDEST SWAP5 POP DUP4 PUSH1 0x7 PUSH1 0x0 DUP12 DUP2 MSTORE PUSH1 0x20 ADD SWAP1 DUP2 MSTORE PUSH1 0x20 ADD PUSH1 0x0 KECCAK256 PUSH1 0x0 DUP3 DUP3 SLOAD PUSH2 0x7B4 SWAP2 SWAP1 PUSH2 0x11C6 JUMP JUMPDEST SWAP1 SWAP2 SSTORE POP DUP2 SWAP1 POP PUSH2 0x7C4 DUP2 PUSH2 0x1264 JUMP JUMPDEST SWAP2 POP POP PUSH2 0x5F4 JUMP JUMPDEST POP PUSH2 0x801 PUSH1 0x1 PUSH1 0x1 PUSH1 0xA0 SHL SUB PUSH32 0x0 AND CALLER DUP7 PUSH2 0xC90 JUMP JUMPDEST PUSH32 0x70C7A0DE307060B91B1763E08E46C7FF7E0A9BD575C8AEBE351F16FE7BBCEB35 CALLER DUP6 DUP5 DUP5 PUSH1 0x40 MLOAD PUSH2 0x836 SWAP5 SWAP4 SWAP3 SWAP2 SWAP1 PUSH2 0xFC1 JUMP JUMPDEST PUSH1 0x40 MLOAD DUP1 SWAP2 SUB SWAP1 LOG1 POP POP JUMPDEST POP POP PUSH1 0x1 DUP1 SSTORE POP POP POP POP JUMP JUMPDEST PUSH2 0x855 PUSH2 0xCEB JUMP JUMPDEST PUSH1 0x1 PUSH1 0x1 PUSH1 0xA0 SHL SUB AND PUSH2 0x866 PUSH2 0x898 JUMP JUMPDEST PUSH1 0x1 PUSH1 0x1 PUSH1 0xA0 SHL SUB AND EQ PUSH2 0x88C JUMPI PUSH1 0x40 MLOAD PUSH3 0x461BCD PUSH1 0xE5 SHL DUP2 MSTORE PUSH1 0x4 ADD PUSH2 0x42E SWAP1 PUSH2 0x10D0 JUMP JUMPDEST PUSH2 0x896 PUSH1 0x0 PUSH2 0xCEF JUMP JUMPDEST JUMP JUMPDEST PUSH1 0x0 SLOAD PUSH1 0x1 PUSH1 0x1 PUSH1 0xA0 SHL SUB AND SWAP1 JUMP JUMPDEST PUSH1 0x0 DUP1 PUSH1 0x0 DUP1 PUSH2 0x8C4 PUSH1 0x4 SLOAD PUSH1 0x3 SLOAD PUSH2 0xC59 SWAP1 SWAP2 SWAP1 PUSH4 0xFFFFFFFF AND JUMP JUMPDEST TIMESTAMP LT PUSH2 0x8D4 JUMPI PUSH1 0x5 SLOAD SWAP2 POP PUSH2 0x8F5 JUMP JUMPDEST PUSH2 0x8F2 PUSH1 0x4 SLOAD PUSH2 0x391 PUSH2 0x388 PUSH1 0x3 SLOAD TIMESTAMP PUSH2 0xC78 SWAP1 SWAP2 SWAP1 PUSH4 0xFFFFFFFF AND JUMP JUMPDEST SWAP2 POP JUMPDEST PUSH1 0x1 DUP6 LT DUP1 PUSH2 0x905 JUMPI POP PUSH2 0x2710 DUP6 GT JUMPDEST ISZERO PUSH2 0x912 JUMPI POP PUSH1 0x0 PUSH2 0x954 JUMP JUMPDEST PUSH1 0x0 DUP6 DUP2 MSTORE PUSH1 0x7 PUSH1 0x20 MSTORE PUSH1 0x40 SWAP1 KECCAK256 SLOAD SWAP3 POP PUSH10 0x21E19E0C9BAB2400000 DUP4 EQ DUP1 PUSH2 0x93A JUMPI POP DUP2 DUP4 GT JUMPDEST ISZERO PUSH2 0x947 JUMPI POP PUSH1 0x0 PUSH2 0x954 JUMP JUMPDEST PUSH2 0x951 DUP3 DUP5 PUSH2 0xC78 JUMP JUMPDEST SWAP1 POP JUMPDEST SWAP5 SWAP4 POP POP POP POP JUMP JUMPDEST PUSH1 0x2 PUSH1 0x1 SLOAD EQ ISZERO PUSH2 0x97F JUMPI PUSH1 0x40 MLOAD PUSH3 0x461BCD PUSH1 0xE5 SHL DUP2 MSTORE PUSH1 0x4 ADD PUSH2 0x42E SWAP1 PUSH2 0x1186 JUMP JUMPDEST PUSH1 0x2 PUSH1 0x1 SSTORE PUSH1 0x40 MLOAD PUSH4 0x31A9108F PUSH1 0xE1 SHL DUP2 MSTORE PUSH1 0x0 SWAP1 DUP2 SWAP1 DUP2 SWAP1 DUP2 SWAP1 PUSH1 0x1 PUSH1 0x1 PUSH1 0xA0 SHL SUB PUSH32 0x0 AND SWAP1 PUSH4 0x6352211E SWAP1 PUSH2 0x9D9 SWAP1 DUP9 SWAP1 PUSH1 0x4 ADD PUSH2 0x11BD JUMP JUMPDEST PUSH1 0x20 PUSH1 0x40 MLOAD DUP1 DUP4 SUB DUP2 DUP7 DUP1 EXTCODESIZE ISZERO DUP1 ISZERO PUSH2 0x9F1 JUMPI PUSH1 0x0 DUP1 REVERT JUMPDEST POP GAS STATICCALL ISZERO DUP1 ISZERO PUSH2 0xA05 JUMPI RETURNDATASIZE PUSH1 0x0 DUP1 RETURNDATACOPY RETURNDATASIZE PUSH1 0x0 REVERT JUMPDEST POP POP POP POP PUSH1 0x40 MLOAD RETURNDATASIZE PUSH1 0x1F NOT PUSH1 0x1F DUP3 ADD AND DUP3 ADD DUP1 PUSH1 0x40 MSTORE POP DUP2 ADD SWAP1 PUSH2 0xA29 SWAP2 SWAP1 PUSH2 0xED2 JUMP JUMPDEST PUSH1 0x1 PUSH1 0x1 PUSH1 0xA0 SHL SUB AND CALLER PUSH1 0x1 PUSH1 0x1 PUSH1 0xA0 SHL SUB AND EQ PUSH2 0xA59 JUMPI PUSH1 0x40 MLOAD PUSH3 0x461BCD PUSH1 0xE5 SHL DUP2 MSTORE PUSH1 0x4 ADD PUSH2 0x42E SWAP1 PUSH2 0x1099 JUMP JUMPDEST PUSH1 0x0 DUP6 DUP2 MSTORE PUSH1 0x7 PUSH1 0x20 MSTORE PUSH1 0x40 SWAP1 KECCAK256 SLOAD PUSH1 0x4 SLOAD PUSH1 0x3 SLOAD SWAP2 SWAP6 POP PUSH2 0xA7B SWAP2 SWAP1 PUSH2 0xC59 JUMP JUMPDEST TIMESTAMP LT PUSH2 0xA8B JUMPI PUSH1 0x5 SLOAD SWAP3 POP PUSH2 0xAAC JUMP JUMPDEST PUSH2 0xAA9 PUSH1 0x4 SLOAD PUSH2 0x391 PUSH2 0x388 PUSH1 0x3 SLOAD TIMESTAMP PUSH2 0xC78 SWAP1 SWAP2 SWAP1 PUSH4 0xFFFFFFFF AND JUMP JUMPDEST SWAP3 POP JUMPDEST DUP4 PUSH10 0x21E19E0C9BAB2400000 EQ DUP1 PUSH2 0xAC3 JUMPI POP DUP3 DUP5 GT JUMPDEST ISZERO PUSH2 0xAD0 JUMPI POP PUSH1 0x0 PUSH2 0xADD JUMP JUMPDEST PUSH2 0xADA DUP4 DUP6 PUSH2 0xC78 JUMP JUMPDEST SWAP1 POP JUMPDEST PUSH1 0x0 DUP6 DUP2 MSTORE PUSH1 0x7 PUSH1 0x20 MSTORE PUSH1 0x40 DUP2 KECCAK256 DUP1 SLOAD SWAP3 SWAP4 POP DUP4 SWAP3 DUP4 SWAP3 SWAP1 PUSH2 0xB00 SWAP1 DUP5 SWAP1 PUSH2 0x11C6 JUMP JUMPDEST SWAP1 SWAP2 SSTORE POP PUSH2 0xB3A SWAP1 POP PUSH1 0x1 PUSH1 0x1 PUSH1 0xA0 SHL SUB PUSH32 0x0 AND CALLER DUP5 PUSH2 0xC90 JUMP JUMPDEST PUSH32 0xCE93BF285B22C6E718B70AB1E247264879EE93AF781BA6F9AB91D660BB00C4F3 CALLER DUP4 DUP8 DUP6 PUSH1 0x40 MLOAD PUSH2 0xB6F SWAP5 SWAP4 SWAP3 SWAP2 SWAP1 PUSH2 0xFFA JUMP JUMPDEST PUSH1 0x40 MLOAD DUP1 SWAP2 SUB SWAP1 LOG1 POP POP PUSH1 0x1 DUP1 SSTORE POP POP POP JUMP JUMPDEST PUSH32 0x0 DUP2 JUMP JUMPDEST PUSH1 0x3 SLOAD DUP2 JUMP JUMPDEST PUSH32 0x0 DUP2 JUMP JUMPDEST PUSH1 0x6 SLOAD DUP2 JUMP JUMPDEST PUSH2 0xBDE PUSH2 0xCEB JUMP JUMPDEST PUSH1 0x1 PUSH1 0x1 PUSH1 0xA0 SHL SUB AND PUSH2 0xBEF PUSH2 0x898 JUMP JUMPDEST PUSH1 0x1 PUSH1 0x1 PUSH1 0xA0 SHL SUB AND EQ PUSH2 0xC15 JUMPI PUSH1 0x40 MLOAD PUSH3 0x461BCD PUSH1 0xE5 SHL DUP2 MSTORE PUSH1 0x4 ADD PUSH2 0x42E SWAP1 PUSH2 0x10D0 JUMP JUMPDEST PUSH1 0x1 PUSH1 0x1 PUSH1 0xA0 SHL SUB DUP2 AND PUSH2 0xC3B JUMPI PUSH1 0x40 MLOAD PUSH3 0x461BCD PUSH1 0xE5 SHL DUP2 MSTORE PUSH1 0x4 ADD PUSH2 0x42E SWAP1 PUSH2 0x1053 JUMP JUMPDEST PUSH2 0xC44 DUP2 PUSH2 0xCEF JUMP JUMPDEST POP JUMP JUMPDEST PUSH1 0x7 PUSH1 0x20 MSTORE PUSH1 0x0 SWAP1 DUP2 MSTORE PUSH1 0x40 SWAP1 KECCAK256 SLOAD DUP2 JUMP JUMPDEST PUSH1 0x0 PUSH2 0xC65 DUP3 DUP5 PUSH2 0x11C6 JUMP JUMPDEST SWAP4 SWAP3 POP POP POP JUMP JUMPDEST PUSH1 0x0 PUSH2 0xC65 DUP3 DUP5 PUSH2 0x11DE JUMP JUMPDEST PUSH1 0x0 PUSH2 0xC65 DUP3 DUP5 PUSH2 0x121D JUMP JUMPDEST PUSH1 0x0 PUSH2 0xC65 DUP3 DUP5 PUSH2 0x11FE JUMP JUMPDEST PUSH2 0xCE6 DUP4 PUSH4 0xA9059CBB PUSH1 0xE0 SHL DUP5 DUP5 PUSH1 0x40 MLOAD PUSH1 0x24 ADD PUSH2 0xCAF SWAP3 SWAP2 SWAP1 PUSH2 0xFA8 JUMP JUMPDEST PUSH1 0x40 DUP1 MLOAD PUSH1 0x1F NOT DUP2 DUP5 SUB ADD DUP2 MSTORE SWAP2 SWAP1 MSTORE PUSH1 0x20 DUP2 ADD DUP1 MLOAD PUSH1 0x1 PUSH1 0x1 PUSH1 0xE0 SHL SUB AND PUSH1 0x1 PUSH1 0x1 PUSH1 0xE0 SHL SUB NOT SWAP1 SWAP4 AND SWAP3 SWAP1 SWAP3 OR SWAP1 SWAP2 MSTORE PUSH2 0xD3F JUMP JUMPDEST POP POP POP JUMP JUMPDEST CALLER SWAP1 JUMP JUMPDEST PUSH1 0x0 DUP1 SLOAD PUSH1 0x1 PUSH1 0x1 PUSH1 0xA0 SHL SUB DUP4 DUP2 AND PUSH1 0x1 PUSH1 0x1 PUSH1 0xA0 SHL SUB NOT DUP4 AND DUP2 OR DUP5 SSTORE PUSH1 0x40 MLOAD SWAP2 SWAP1 SWAP3 AND SWAP3 DUP4 SWAP2 PUSH32 0x8BE0079C531659141344CD1FD0A4F28419497F9722A3DAAFE3B4186F6B6457E0 SWAP2 SWAP1 LOG3 POP POP JUMP JUMPDEST PUSH1 0x0 PUSH2 0xD94 DUP3 PUSH1 0x40 MLOAD DUP1 PUSH1 0x40 ADD PUSH1 0x40 MSTORE DUP1 PUSH1 0x20 DUP2 MSTORE PUSH1 0x20 ADD PUSH32 0x5361666545524332303A206C6F772D6C6576656C2063616C6C206661696C6564 DUP2 MSTORE POP DUP6 PUSH1 0x1 PUSH1 0x1 PUSH1 0xA0 SHL SUB AND PUSH2 0xDCE SWAP1 SWAP3 SWAP2 SWAP1 PUSH4 0xFFFFFFFF AND JUMP JUMPDEST DUP1 MLOAD SWAP1 SWAP2 POP ISZERO PUSH2 0xCE6 JUMPI DUP1 DUP1 PUSH1 0x20 ADD SWAP1 MLOAD DUP2 ADD SWAP1 PUSH2 0xDB2 SWAP2 SWAP1 PUSH2 0xEEE JUMP JUMPDEST PUSH2 0xCE6 JUMPI PUSH1 0x40 MLOAD PUSH3 0x461BCD PUSH1 0xE5 SHL DUP2 MSTORE PUSH1 0x4 ADD PUSH2 0x42E SWAP1 PUSH2 0x113C JUMP JUMPDEST PUSH1 0x60 PUSH2 0x954 DUP5 DUP5 PUSH1 0x0 DUP6 DUP6 PUSH2 0xDE2 DUP6 PUSH2 0xE77 JUMP JUMPDEST PUSH2 0xDFE JUMPI PUSH1 0x40 MLOAD PUSH3 0x461BCD PUSH1 0xE5 SHL DUP2 MSTORE PUSH1 0x4 ADD PUSH2 0x42E SWAP1 PUSH2 0x1105 JUMP JUMPDEST PUSH1 0x0 DUP1 DUP7 PUSH1 0x1 PUSH1 0x1 PUSH1 0xA0 SHL SUB AND DUP6 DUP8 PUSH1 0x40 MLOAD PUSH2 0xE1A SWAP2 SWAP1 PUSH2 0xF78 JUMP JUMPDEST PUSH1 0x0 PUSH1 0x40 MLOAD DUP1 DUP4 SUB DUP2 DUP6 DUP8 GAS CALL SWAP3 POP POP POP RETURNDATASIZE DUP1 PUSH1 0x0 DUP2 EQ PUSH2 0xE57 JUMPI PUSH1 0x40 MLOAD SWAP2 POP PUSH1 0x1F NOT PUSH1 0x3F RETURNDATASIZE ADD AND DUP3 ADD PUSH1 0x40 MSTORE RETURNDATASIZE DUP3 MSTORE RETURNDATASIZE PUSH1 0x0 PUSH1 0x20 DUP5 ADD RETURNDATACOPY PUSH2 0xE5C JUMP JUMPDEST PUSH1 0x60 SWAP2 POP JUMPDEST POP SWAP2 POP SWAP2 POP PUSH2 0xE6C DUP3 DUP3 DUP7 PUSH2 0xE7D JUMP JUMPDEST SWAP8 SWAP7 POP POP POP POP POP POP POP JUMP JUMPDEST EXTCODESIZE ISZERO ISZERO SWAP1 JUMP JUMPDEST PUSH1 0x60 DUP4 ISZERO PUSH2 0xE8C JUMPI POP DUP2 PUSH2 0xC65 JUMP JUMPDEST DUP3 MLOAD ISZERO PUSH2 0xE9C JUMPI DUP3 MLOAD DUP1 DUP5 PUSH1 0x20 ADD REVERT JUMPDEST DUP2 PUSH1 0x40 MLOAD PUSH3 0x461BCD PUSH1 0xE5 SHL DUP2 MSTORE PUSH1 0x4 ADD PUSH2 0x42E SWAP2 SWAP1 PUSH2 0x1020 JUMP JUMPDEST PUSH1 0x0 PUSH1 0x20 DUP3 DUP5 SUB SLT ISZERO PUSH2 0xEC7 JUMPI DUP1 DUP2 REVERT JUMPDEST DUP2 CALLDATALOAD PUSH2 0xC65 DUP2 PUSH2 0x1295 JUMP JUMPDEST PUSH1 0x0 PUSH1 0x20 DUP3 DUP5 SUB SLT ISZERO PUSH2 0xEE3 JUMPI DUP1 DUP2 REVERT JUMPDEST DUP2 MLOAD PUSH2 0xC65 DUP2 PUSH2 0x1295 JUMP JUMPDEST PUSH1 0x0 PUSH1 0x20 DUP3 DUP5 SUB SLT ISZERO PUSH2 0xEFF JUMPI DUP1 DUP2 REVERT JUMPDEST DUP2 MLOAD DUP1 ISZERO ISZERO DUP2 EQ PUSH2 0xC65 JUMPI DUP2 DUP3 REVERT JUMPDEST PUSH1 0x0 PUSH1 0x20 DUP3 DUP5 SUB SLT ISZERO PUSH2 0xF1F JUMPI DUP1 DUP2 REVERT JUMPDEST POP CALLDATALOAD SWAP2 SWAP1 POP JUMP JUMPDEST PUSH1 0x0 PUSH1 0x20 DUP3 DUP5 SUB SLT ISZERO PUSH2 0xF37 JUMPI DUP1 DUP2 REVERT JUMPDEST POP MLOAD SWAP2 SWAP1 POP JUMP JUMPDEST PUSH1 0x0 DUP2 MLOAD DUP1 DUP5 MSTORE PUSH1 0x20 DUP1 DUP6 ADD SWAP5 POP DUP1 DUP5 ADD DUP4 JUMPDEST DUP4 DUP2 LT ISZERO PUSH2 0xF6D JUMPI DUP2 MLOAD DUP8 MSTORE SWAP6 DUP3 ADD SWAP6 SWAP1 DUP3 ADD SWAP1 PUSH1 0x1 ADD PUSH2 0xF51 JUMP JUMPDEST POP SWAP5 SWAP6 SWAP5 POP POP POP POP POP JUMP JUMPDEST PUSH1 0x0 DUP3 MLOAD PUSH2 0xF8A DUP2 DUP5 PUSH1 0x20 DUP8 ADD PUSH2 0x1234 JUMP JUMPDEST SWAP2 SWAP1 SWAP2 ADD SWAP3 SWAP2 POP POP JUMP JUMPDEST PUSH1 0x1 PUSH1 0x1 PUSH1 0xA0 SHL SUB SWAP2 SWAP1 SWAP2 AND DUP2 MSTORE PUSH1 0x20 ADD SWAP1 JUMP JUMPDEST PUSH1 0x1 PUSH1 0x1 PUSH1 0xA0 SHL SUB SWAP3 SWAP1 SWAP3 AND DUP3 MSTORE PUSH1 0x20 DUP3 ADD MSTORE PUSH1 0x40 ADD SWAP1 JUMP JUMPDEST PUSH1 0x0 PUSH1 0x1 DUP1 PUSH1 0xA0 SHL SUB DUP7 AND DUP3 MSTORE DUP5 PUSH1 0x20 DUP4 ADD MSTORE PUSH1 0x80 PUSH1 0x40 DUP4 ADD MSTORE PUSH2 0xFE8 PUSH1 0x80 DUP4 ADD DUP6 PUSH2 0xF3E JUMP JUMPDEST DUP3 DUP2 SUB PUSH1 0x60 DUP5 ADD MSTORE PUSH2 0xE6C DUP2 DUP6 PUSH2 0xF3E JUMP JUMPDEST PUSH1 0x1 PUSH1 0x1 PUSH1 0xA0 SHL SUB SWAP5 SWAP1 SWAP5 AND DUP5 MSTORE PUSH1 0x20 DUP5 ADD SWAP3 SWAP1 SWAP3 MSTORE PUSH1 0x40 DUP4 ADD MSTORE PUSH1 0x60 DUP3 ADD MSTORE PUSH1 0x80 ADD SWAP1 JUMP JUMPDEST PUSH1 0x0 PUSH1 0x20 DUP3 MSTORE DUP3 MLOAD DUP1 PUSH1 0x20 DUP5 ADD MSTORE PUSH2 0x103F DUP2 PUSH1 0x40 DUP6 ADD PUSH1 0x20 DUP8 ADD PUSH2 0x1234 JUMP JUMPDEST PUSH1 0x1F ADD PUSH1 0x1F NOT AND SWAP2 SWAP1 SWAP2 ADD PUSH1 0x40 ADD SWAP3 SWAP2 POP POP JUMP JUMPDEST PUSH1 0x20 DUP1 DUP3 MSTORE PUSH1 0x26 SWAP1 DUP3 ADD MSTORE PUSH32 0x4F776E61626C653A206E6577206F776E657220697320746865207A65726F2061 PUSH1 0x40 DUP3 ADD MSTORE PUSH6 0x646472657373 PUSH1 0xD0 SHL PUSH1 0x60 DUP3 ADD MSTORE PUSH1 0x80 ADD SWAP1 JUMP JUMPDEST PUSH1 0x20 DUP1 DUP3 MSTORE PUSH1 0x1A SWAP1 DUP3 ADD MSTORE PUSH32 0x53656E646572206973206E6F74206F776E6572206F66204E4654000000000000 PUSH1 0x40 DUP3 ADD MSTORE PUSH1 0x60 ADD SWAP1 JUMP JUMPDEST PUSH1 0x20 DUP1 DUP3 MSTORE DUP2 DUP2 ADD MSTORE PUSH32 0x4F776E61626C653A2063616C6C6572206973206E6F7420746865206F776E6572 PUSH1 0x40 DUP3 ADD MSTORE PUSH1 0x60 ADD SWAP1 JUMP JUMPDEST PUSH1 0x20 DUP1 DUP3 MSTORE PUSH1 0x1D SWAP1 DUP3 ADD MSTORE PUSH32 0x416464726573733A2063616C6C20746F206E6F6E2D636F6E7472616374000000 PUSH1 0x40 DUP3 ADD MSTORE PUSH1 0x60 ADD SWAP1 JUMP JUMPDEST PUSH1 0x20 DUP1 DUP3 MSTORE PUSH1 0x2A SWAP1 DUP3 ADD MSTORE PUSH32 0x5361666545524332303A204552433230206F7065726174696F6E20646964206E PUSH1 0x40 DUP3 ADD MSTORE PUSH10 0x1BDD081CDD58D8D95959 PUSH1 0xB2 SHL PUSH1 0x60 DUP3 ADD MSTORE PUSH1 0x80 ADD SWAP1 JUMP JUMPDEST PUSH1 0x20 DUP1 DUP3 MSTORE PUSH1 0x1F SWAP1 DUP3 ADD MSTORE PUSH32 0x5265656E7472616E637947756172643A207265656E7472616E742063616C6C00 PUSH1 0x40 DUP3 ADD MSTORE PUSH1 0x60 ADD SWAP1 JUMP JUMPDEST SWAP1 DUP2 MSTORE PUSH1 0x20 ADD SWAP1 JUMP JUMPDEST PUSH1 0x0 DUP3 NOT DUP3 GT ISZERO PUSH2 0x11D9 JUMPI PUSH2 0x11D9 PUSH2 0x127F JUMP JUMPDEST POP ADD SWAP1 JUMP JUMPDEST PUSH1 0x0 DUP3 PUSH2 0x11F9 JUMPI PUSH4 0x4E487B71 PUSH1 0xE0 SHL DUP2 MSTORE PUSH1 0x12 PUSH1 0x4 MSTORE PUSH1 0x24 DUP2 REVERT JUMPDEST POP DIV SWAP1 JUMP JUMPDEST PUSH1 0x0 DUP2 PUSH1 0x0 NOT DIV DUP4 GT DUP3 ISZERO ISZERO AND ISZERO PUSH2 0x1218 JUMPI PUSH2 0x1218 PUSH2 0x127F JUMP JUMPDEST POP MUL SWAP1 JUMP JUMPDEST PUSH1 0x0 DUP3 DUP3 LT ISZERO PUSH2 0x122F JUMPI PUSH2 0x122F PUSH2 0x127F JUMP JUMPDEST POP SUB SWAP1 JUMP JUMPDEST PUSH1 0x0 JUMPDEST DUP4 DUP2 LT ISZERO PUSH2 0x124F JUMPI DUP2 DUP2 ADD MLOAD DUP4 DUP3 ADD MSTORE PUSH1 0x20 ADD PUSH2 0x1237 JUMP JUMPDEST DUP4 DUP2 GT ISZERO PUSH2 0x125E JUMPI PUSH1 0x0 DUP5 DUP5 ADD MSTORE JUMPDEST POP POP POP POP JUMP JUMPDEST PUSH1 0x0 PUSH1 0x0 NOT DUP3 EQ ISZERO PUSH2 0x1278 JUMPI PUSH2 0x1278 PUSH2 0x127F JUMP JUMPDEST POP PUSH1 0x1 ADD SWAP1 JUMP JUMPDEST PUSH4 0x4E487B71 PUSH1 0xE0 SHL PUSH1 0x0 MSTORE PUSH1 0x11 PUSH1 0x4 MSTORE PUSH1 0x24 PUSH1 0x0 REVERT JUMPDEST PUSH1 0x1 PUSH1 0x1 PUSH1 0xA0 SHL SUB DUP2 AND DUP2 EQ PUSH2 0xC44 JUMPI PUSH1 0x0 DUP1 REVERT INVALID LOG2 PUSH5 0x6970667358 0x22 SLT KECCAK256 0xF9 0xB4 PUSH15 0xDE2E45F552558B8A5A65A2151F7B23 PUSH2 0x2350 MSIZE SELFDESTRUCT CALL SWAP12 0xA9 0xAD 0xA9 0xCE LT 0xC3 SUB PUSH5 0x736F6C6343 STOP ADDMOD STOP STOP CALLER "
		},
		"gasEstimates": {
			"creation": {
				"codeDepositCost": "966400",
				"executionCost": "infinite",
				"totalCost": "infinite"
			},
			"external": {
				"Punk()": "infinite",
				"Punks()": "infinite",
				"claim()": "infinite",
				"claimAvailable(address)": "infinite",
				"claimAvailablePunk(uint256)": "infinite",
				"claimPunk(uint256)": "infinite",
				"cliff()": "1096",
				"duration()": "1074",
				"owner()": "1159",
				"punkAvailable()": "1051",
				"punkClaimed(uint256)": "1259",
				"renounceOwnership()": "23571",
				"start()": "1117",
				"totalAvailable()": "1072",
				"transferOwnership(address)": "infinite"
			}
		},
		"methodIdentifiers": {
			"Punk()": "d0e0a4b1",
			"Punks()": "b2a229b9",
			"claim()": "4e71d92d",
			"claimAvailable(address)": "0b5d79af",
			"claimAvailablePunk(uint256)": "a4a79a2f",
			"claimPunk(uint256)": "ad5ae76f",
			"cliff()": "13d033c0",
			"duration()": "0fb5a6b4",
			"owner()": "8da5cb5b",
			"punkAvailable()": "13e8909d",
			"punkClaimed(uint256)": "fa88c3be",
			"renounceOwnership()": "715018a6",
			"start()": "be9a6555",
			"totalAvailable()": "d85d7f5b",
			"transferOwnership(address)": "f2fde38b"
		}
	},
	"abi": [
		{
			"inputs": [
				{
					"internalType": "uint256",
					"name": "_start",
					"type": "uint256"
				},
				{
					"internalType": "uint256",
					"name": "_cliff",
					"type": "uint256"
				},
				{
					"internalType": "uint256",
					"name": "_duration",
					"type": "uint256"
				},
				{
					"internalType": "uint256",
					"name": "_totalAvailable",
					"type": "uint256"
				},
				{
					"internalType": "contract IERC20",
					"name": "_Punk",
					"type": "address"
				},
				{
					"internalType": "contract IPunks",
					"name": "_Punks",
					"type": "address"
				}
			],
			"stateMutability": "nonpayable",
			"type": "constructor"
		},
		{
			"anonymous": false,
			"inputs": [
				{
					"indexed": false,
					"internalType": "address",
					"name": "owner",
					"type": "address"
				},
				{
					"indexed": false,
					"internalType": "uint256",
					"name": "total",
					"type": "uint256"
				},
				{
					"indexed": false,
					"internalType": "uint256",
					"name": "punk",
					"type": "uint256"
				},
				{
					"indexed": false,
					"internalType": "uint256",
					"name": "punkAmount",
					"type": "uint256"
				}
			],
			"name": "ClaimedPunkToken",
			"type": "event"
		},
		{
			"anonymous": false,
			"inputs": [
				{
					"indexed": false,
					"internalType": "address",
					"name": "owner",
					"type": "address"
				},
				{
					"indexed": false,
					"internalType": "uint256",
					"name": "total",
					"type": "uint256"
				},
				{
					"indexed": false,
					"internalType": "uint256[]",
					"name": "punks",
					"type": "uint256[]"
				},
				{
					"indexed": false,
					"internalType": "uint256[]",
					"name": "punkAmounts",
					"type": "uint256[]"
				}
			],
			"name": "ClaimedPunkTokens",
			"type": "event"
		},
		{
			"anonymous": false,
			"inputs": [
				{
					"indexed": true,
					"internalType": "address",
					"name": "previousOwner",
					"type": "address"
				},
				{
					"indexed": true,
					"internalType": "address",
					"name": "newOwner",
					"type": "address"
				}
			],
			"name": "OwnershipTransferred",
			"type": "event"
		},
		{
			"inputs": [],
			"name": "Punk",
			"outputs": [
				{
					"internalType": "contract IERC20",
					"name": "",
					"type": "address"
				}
			],
			"stateMutability": "view",
			"type": "function"
		},
		{
			"inputs": [],
			"name": "Punks",
			"outputs": [
				{
					"internalType": "contract IPunks",
					"name": "",
					"type": "address"
				}
			],
			"stateMutability": "view",
			"type": "function"
		},
		{
			"inputs": [],
			"name": "claim",
			"outputs": [],
			"stateMutability": "nonpayable",
			"type": "function"
		},
		{
			"inputs": [
				{
					"internalType": "address",
					"name": "owner",
					"type": "address"
				}
			],
			"name": "claimAvailable",
			"outputs": [
				{
					"internalType": "uint256",
					"name": "",
					"type": "uint256"
				}
			],
			"stateMutability": "view",
			"type": "function"
		},
		{
			"inputs": [
				{
					"internalType": "uint256",
					"name": "tokenId",
					"type": "uint256"
				}
			],
			"name": "claimAvailablePunk",
			"outputs": [
				{
					"internalType": "uint256",
					"name": "",
					"type": "uint256"
				}
			],
			"stateMutability": "view",
			"type": "function"
		},
		{
			"inputs": [
				{
					"internalType": "uint256",
					"name": "tokenId",
					"type": "uint256"
				}
			],
			"name": "claimPunk",
			"outputs": [],
			"stateMutability": "nonpayable",
			"type": "function"
		},
		{
			"inputs": [],
			"name": "cliff",
			"outputs": [
				{
					"internalType": "uint256",
					"name": "",
					"type": "uint256"
				}
			],
			"stateMutability": "view",
			"type": "function"
		},
		{
			"inputs": [],
			"name": "duration",
			"outputs": [
				{
					"internalType": "uint256",
					"name": "",
					"type": "uint256"
				}
			],
			"stateMutability": "view",
			"type": "function"
		},
		{
			"inputs": [],
			"name": "owner",
			"outputs": [
				{
					"internalType": "address",
					"name": "",
					"type": "address"
				}
			],
			"stateMutability": "view",
			"type": "function"
		},
		{
			"inputs": [],
			"name": "punkAvailable",
			"outputs": [
				{
					"internalType": "uint256",
					"name": "",
					"type": "uint256"
				}
			],
			"stateMutability": "view",
			"type": "function"
		},
		{
			"inputs": [
				{
					"internalType": "uint256",
					"name": "",
					"type": "uint256"
				}
			],
			"name": "punkClaimed",
			"outputs": [
				{
					"internalType": "uint256",
					"name": "",
					"type": "uint256"
				}
			],
			"stateMutability": "view",
			"type": "function"
		},
		{
			"inputs": [],
			"name": "renounceOwnership",
			"outputs": [],
			"stateMutability": "nonpayable",
			"type": "function"
		},
		{
			"inputs": [],
			"name": "start",
			"outputs": [
				{
					"internalType": "uint256",
					"name": "",
					"type": "uint256"
				}
			],
			"stateMutability": "view",
			"type": "function"
		},
		{
			"inputs": [],
			"name": "totalAvailable",
			"outputs": [
				{
					"internalType": "uint256",
					"name": "",
					"type": "uint256"
				}
			],
			"stateMutability": "view",
			"type": "function"
		},
		{
			"inputs": [
				{
					"internalType": "address",
					"name": "newOwner",
					"type": "address"
				}
			],
			"name": "transferOwnership",
			"outputs": [],
			"stateMutability": "nonpayable",
			"type": "function"
		}
	]
}